:020000040800F2
:10000000D80700204D020008753500087735000834
:10001000793500087B3500087D35000800000000B8
:100020000000000000000000000000007F35000814
:10003000813500080000000083350008873500087E
:1000400067020008670200086702000867020008EC
:1000500067020008670200086702000867020008DC
:1000600067020008670200086702000867020008CC
:1000700067020008670200086702000867020008BC
:10008000670200086702000867020008000000001D
:1000900000000000000000000000000067020008EF
:1000A000670200086702000867020008670200088C
:1000B000670200086702000867020008670200087C
:1000C000670200086702000867020008670200086C
:1000D000670200087931000899310008000000002B
:1000E00067020008670200086702000800000000BD
:1000F000000000000000000000000000670200088F
:10010000000000006702000867020008670200089C
:1001100000000000000000000000000000000000DF
:10012000670200086702000867020008670200080B
:10013000670200080000000000000000000000004E
:10014000000000000000000000000000670200083E
:100150006702000867020008670200081F320008F3
:1001600067020008670200080000000000000000AD
:10017000000000000000000000000000000000007F
:1001800000000000670200080000000000000000FE
:100190006702000800F002F800F049F80AA090E8B1
:1001A000000C82448344AAF10107DA4501D100F032
:1001B0003EF8AFF2090EBAE80F0013F0010F18BFB6
:1001C000FB1A43F001031847D84C0000F84C00001C
:1001D000103A24BF78C878C1FAD8520724BF30C873
:1001E00030C144BF04680C60704700000023002445
:1001F00000250026103A28BF78C1FBD8520728BF37
:1002000030C148BF0B607047662904F0D1850020DB
:1002100070471FB504F0C7FD03F082FD0400002005
:10022000002104F0C9FAE0601FBD10B510BD03F055
:1002300073FE1146FFF7EDFF03F09EF803F091FE09
:1002400003B4FFF7F2FF03BC03F0D4FE0948804774
:1002500009480047FEE7FEE7FEE7FEE7FEE7FEE7A8
:10026000FEE7FEE7FEE7FEE704480549054A064BC0
:10027000704700009135000895010008D801002062
:10028000D8070020D8030020D803002028490843BD
:1002900028490860704730B50F23C27801780125DE
:1002A000FAB1244A126801F1E02102F4E062C2F5D9
:1002B000E062C2F30722C2F10404D3404278A240B4
:1002C00084781C401443220181F80024007800F057
:1002D0001F018D404009800000F1E020C0F800516E
:1002E00030BD01F01F0085404809800000F1E0208A
:1002F000C0F8805130BD104A114001430D48001F25
:10030000016070470B4A121D0029116801D001439A
:1003100000E08143116070474FF0E0210428086934
:1003200003D020F004000861704740F00400FAE7B1
:100330000000FA050CED00E080FFFF1FF84801689F
:1003400041F001010160F64A0021083211600268A3
:10035000F44B1A400260031DF34A1A60F04BF34A53
:1003600084331A60F04A103A1B1D1A60026822F4A6
:1003700080220260EA480C300160181D016070475D
:10038000E7490022891C0A70087070470246002065
:10039000510901290CD002290CD0E14974310968B6
:1003A00002F01F02012393400B4200D0012070474E
:1003B000DB49F4E7DA497031F1E718B500204FF472
:1003C000A04400903120FFF7E1FF0099491C009103
:1003D000A14201D00028F5D03120FFF7D7FF002837
:1003E00000D0012018BDCE4A116821F0F80141EA81
:1003F000C00010607047CE4908607047C8490022AD
:1004000070310A700A70012802D0042801D1052039
:1004100008707047C7490860704741EA82115A085E
:1004200010B5C54B029C03EB02421143014341EA64
:100430000460BB49091D086010BDBD4908667047CE
:10044000800140EA0170B649843108607047B849BC
:1004500088667047800140EA0160B14940EA027055
:10046000883108607047B24908677047B049C8646E
:100470007047AB4B08331A68084322F0EC62104314
:1004800018607047A64B08331A68084322F0784278
:10049000104318607047A24A0832116821F0030126
:1004A0000143116070479E480830006800F00C005E
:1004B00070479B4A0832116821F0F0010143116036
:1004C0007047974A0832116821F4E05101431160E6
:1004D0007047934A0832116821F4604141EAC00034
:1004E0001060704770B58E4B08331968934C11F04B
:1004F0000C0104D06610042903D0082903D004603D
:100500001BE0066019E0864A121D1168C1F3805590
:10051000116801F03F0115B1B6FBF1F101E0B4FB48
:10052000F1F114681268C4F388146143C2F3014204
:10053000521C5200B1FBF2F1016019680F2202EA6D
:1005400011117F4A545C0168E14041601C68072535
:1005500005EA9424145D21FA04F484601B6805EA1A
:100560005333D25CD140C16070BDC0F30121032977
:1005700008D16B4B08331968724A21F4F811024014
:100580000A431A60664970310A68C0F30B000243DF
:100590000A607047674944390860704765494039C7
:1005A000086070476249C1F85C0170475C4A8C3250
:1005B0001168401E21F01F01014311607047584A25
:1005C0008C3211686FF0FF0321F4F85103EB002027
:1005D000084310607047524A8C32116821F4401170
:1005E0000143116070474E4A8C32116821F440017A
:1005F0000143116070474A4A8C32116821F440313E
:100600000143116070475049C1F8E0017047444A06
:1006100030320029116801D0014300E081431160AC
:1006200070473F4A34320029116801D0014300E08D
:100630008143116070473A4A38320029116801D06D
:10064000014300E0814311607047354A4032002980
:10065000116801D0014300E0814311607047304AC6
:1006600044320029116801D0014300E08143116048
:1006700070472B4A10320029116801D0014300E075
:10068000814311607047264A14320029116801D055
:10069000014300E0814311607047214A183200296C
:1006A000116801D0014300E08143116070471C4A8A
:1006B00020320029116801D0014300E0814311601C
:1006C0007047174A24320029116801D0014300E025
:1006D000814311607047124A50320029116801D0DD
:1006E000014300E08143116070470D4A54320029F4
:1006F000116801D0014300E0814311607047084A4E
:1007000058320029116801D0014300E08143116093
:100710007047034A60320029116817D0014316E080
:1007200000380240FFFFF6EA1030002400300020BD
:1007300000004742800E47420000FFFF0024F40003
:1007400000000020FFFCFF0F0010474281431160B2
:100750007047194A0029116801D0014300E0814324
:100760001160704714490C310128086803D020F04B
:1007700008000860704740F00800FAE70E4A573A50
:100780000029117801D0014300E0814311707047C6
:1007900009481030016841F08071016070470146DE
:1007A000054A0020583A12680A4200D001207047DA
:1007B000014956390870704764380240774910B5CE
:1007C000884206D101210846FFF753FF002101208E
:1007D0005BE07349884206D101210220FFF749FFFF
:1007E0000021022051E06F49884206D101210420F6
:1007F000FFF73FFF0021042047E06B49884206D104
:1008000001210820FFF735FF002108203DE067495E
:10081000884206D101211020FFF72BFF0021102074
:1008200033E06349884206D101212020FFF721FFF0
:100830000021202029E05F49884206D10121402083
:10084000FFF717FF002140201FE05B49884206D1D7
:1008500001218020FFF70DFF0021802015E057497E
:10086000884202D1012184150AE05549884202D10B
:100870000121441504E0534988420AD1012104159D
:100880002046FFF7F6FE00212046BDE81040FFF7A6
:10089000F0BE10BDF0B5002201274FF0030C0B682D
:1008A00007FA02F52B40AB422CD1066853000CFA34
:1008B00003F4A64306600E79D0F800E09E4046EAB5
:1008C0000E0606600E79012E01D0022E12D1866826
:1008D000A64386604E79D0F808E09E4046EA0E06B0
:1008E00086604668AE43466045688E799640B6B2EB
:1008F00035434560C568A543C560CC799C40C36855
:100900001C43C460521C102AC9D3F0BD4FF6FF71BE
:1009100001600021017141718171C171704708B599
:1009200041F480320092C261C1610099C161C16924
:10093000C069009008BD0246002012690A4200D03A
:1009400001207047006980B270470246002052695A
:100950000A4200D001207047406980B2704701838D
:100960007047418370470AB10183704741837047E4
:100970004161704742694A40426170474B07DB0E54
:100980009A40C90810B500EB8100016A0F249C4011
:10099000A1430162016A1143016210BD00000240DF
:1009A0000004024000080240000C02400010024017
:1009B0000014024000180240001C024000200240C7
:1009C0000024024000280240CD4910B5884206D1DB
:1009D00001211020FFF775FE0021102020E0C949F9
:1009E000884202D101214C0429E0C749884202D142
:1009F00001218C0423E0C549884202D10121CC04A5
:100A00001DE0C349884202D101210C0517E0C1490C
:100A1000884209D101212020FFF753FE0021202028
:100A2000BDE81040FFF74DBEBB49884202D101210D
:100A30008C0704E0B94988420AD1012144052046C7
:100A4000FFF735FE2046BDE810400021FFF72FBE1E
:100A500010BD7FB50446008A0D46C98820F4405079
:100A600001432182A08941F20C618843A9882A8927
:100A700011436A8902431143A181A08A20F4407185
:100A8000A8890843A0826846FFF72CFD9C48844251
:100A900002D0A048844201D1039800E00298A189C5
:100AA000090400EBC00101EB0010296801D54900E1
:100AB00000E08900B0FBF1F06422B0FBF2F1090123
:100AC0000B096FF018056B4300EB8300A3891D042D
:100AD0004FF0320306D503EBC000B0FBF2F000F09C
:100AE000070005E003EB0010B0FBF2F000F00F0090
:100AF000084320817FBD4FF41651016000218180A1
:100B0000C18001810C2242818181704710B5028A27
:100B10004C8822F470630A8822438C88C9880C436D
:100B200022431A43028210BD00210180418081804E
:100B3000C18070470029818902D041F4005101E051
:100B400021F4005181817047028B02F47F420283BD
:100B5000028B0A43028370470029818902D041F445
:100B6000004101E0C1F30E01818170470029818AB3
:100B700002D041F4006101E021F4006181827047FC
:100B8000C1F30801818070478088C0F30800704776
:100B9000028A22F00F020282028A0A43028270470E
:100BA0000029818902D041F0020101E021F0020117
:100BB00081817047828922F40062828182890A439E
:100BC00082817047028A22F020020282028A0A434E
:100BD000028270470029018A02D041F4804101E07D
:100BE00021F4804101827047818941F001018181B6
:100BF00070470029818A02D041F0080101E021F00C
:100C0000080181827047028BD2B20283028B42EAD2
:100C10000121018370470029818A02D041F020011F
:100C200001E021F02001818270470029818A02D0F1
:100C300041F0100101E021F0100181827047828AA9
:100C400022F004028282828A0A438282704700294B
:100C5000818A02D041F0020101E021F0020181828B
:100C60007047002A828A01D00A4300E08A438282C8
:100C7000704710B5C1F3421301F01F040121A140D8
:100C8000012B07D0022B07D01430002A026805D0B0
:100C90000A4304E00C30F8E71030F6E78A430260BC
:100CA00010BD0246002012880A4200D00120704781
:100CB000C9430180704770B501F01F05012600246B
:100CC000C1F3421306FA05F2012B0FD0022B0FD00D
:100CD000838A4FEA11210088134206FA01F600EADE
:100CE000060001D000B10124204670BD8389F0E7E1
:100CF000038AEEE70A0A01219140C9430180704747
:100D0000001001400044004000480040004C0040FA
:100D1000005000400014014000780040007C00407A
:100D2000FE4910B5884206D101210846FFF7C9FCEB
:100D3000002101205BE0B0F1804F09D0F8498842E2
:100D40000DD101210220FFF7B2FC0021022070E04A
:100D500001210846FFF7ABFC0021012069E0F149C1
:100D6000884206D101210420FFF7A1FC00210420C4
:100D70005FE0ED49884206D101210820FFF797FC8A
:100D80000021082055E0E949884206D101211020C0
:100D9000FFF78DFC002110204BE0E549884206D189
:100DA00001212020FFF783FC0021202041E0E149C0
:100DB000884206D101210220FFF783FC0021022096
:100DC00015E0DD49884202D101210C040AE0DB492B
:100DD000884202D101214C0404E0D94988420AD159
:100DE00001218C042046FFF76CFC00212046BDE861
:100DF0001040FFF766BCD349884206D1012140204C
:100E0000FFF755FC0021402013E0CF49884206D16E
:100E100001218020FFF74BFC0021802009E0CB4915
:100E200088420AD1841501212046FFF740FC0021A9
:100E30002046BDE81040FFF73ABC10BD30B502882F
:100E4000B64CBC4DA0420DD0A8420BD0B0F1804FA3
:100E500008D0B34B984205D0B24B984202D0B24B67
:100E6000984203D122F070034A881A43AF4B98424C
:100E700006D0AF4B984203D022F440730A891A433C
:100E800002804A68C2620A880285A04201D0A84254
:100E900001D1897A01860121818230BD4FF0FF3175
:100EA000416000210180018141808172704701858C
:100EB00082827047028822F070020A4302807047E3
:100EC00041627047C1627047406A7047008D704749
:100ED0000029018802D041F0020101E021F0020165
:100EE000018070470029018802D041F0040101E02F
:100EF00021F00401018070470029018802D041F0EF
:100F0000800101E021F0800101807047028822F019
:100F10000802028002880A4302807047028822F495
:100F20004072028002880A430280704700290188CB
:100F300002D041F0010101E021F001010180704780
:100F400030B5028C22F001020284028C8388048B6B
:100F500022F0020224F073050C882C438D8915437E
:100F60004A882A436D4DA84202D0724DA8420DD145
:100F700022F00805CA8923F440732A4322F00405AD
:100F80008A882A430D8A1D434B8A2B43838004831E
:100F900089684163028430BD70B5028C22F0100272
:100FA0000284028C8388048B0D8824F4E6464FF675
:100FB000FF7404EA052535438E8922F0200204EAF5
:100FC000061616434A8804EA02123243534EB042D0
:100FD00002D0584EB04215D122F08006CA8923F4BF
:100FE000406304EA0212324322F040068A8804EA8F
:100FF000021232430E8A04EA86061E434B8A04EA32
:10100000830333438380058389688163028470BDD1
:1010100070B5028C22F480720284028C8388848BE7
:101020000D8824F0730425438E894FF6FF7422F453
:10103000007204EA062616434A8804EA0222324372
:10104000364EB04202D03B4EB04215D122F400667B
:10105000CA8923F4405304EA0222324322F4806610
:101060008A8804EA022232430E8A04EA06161E43E4
:101070004B8A04EA03133343838085838968C16301
:10108000028470BD70B5028C22F480520284058CFB
:101090008288838B0C8823F4E6464FF6FF7303EABD
:1010A0000424344325F400568D8903EA053535437D
:1010B0004E8803EA06362E43184DA84202D01D4D35
:1010C000A84205D122F480450A8A03EA82122A4303
:1010D0008280848389680164068470BD0021018058
:1010E0004180818081608181C1810182418270471C
:1010F00030B50124058C00F118038C40A54305840C
:1011000031B308292CD0091FC1F34E0018440168DF
:1011100048F6FF731940016001681AE000000140C1
:101120000004004000080040000C00400010004097
:101130000014004000040140004001400044014010
:101140000048014000180040001C00400020004002
:1011500006E04FF6FF7303EA02221143016030BD3F
:1011600003EB510001684FF68F731940016001686D
:10117000F3E74163704781637047C163704701645F
:101180007047028B22F070020A4302837047028B81
:101190004FF6FF7322F4E04203EA01211143018379
:1011A0007047828B22F070020A4382837047828BE1
:1011B0004FF6FF7322F4E04203EA012111438183D9
:1011C0007047028B22F008020A4302837047028BA9
:1011D0004FF6FF7322F4006203EA012111430183F9
:1011E0007047828B22F008020A4382837047828B09
:1011F0004FF6FF7322F4006203EA01211143818359
:101200007047028B22F004020A4302837047028B6C
:101210004FF6FF7322F4806203EA01211143018338
:101220007047828B22F004020A4382837047828BCC
:101230004FF6FF7322F4806203EA01211143818398
:101240007047028B22F080020A4302837047028BB0
:101250004FF6FF73C2F30E0203EA0121114301832B
:101260007047828B22F080020A4382837047828B10
:101270004FF6FF73C2F30E0203EA0121114381838B
:101280007047028C22F002020A4302847047028CEB
:1012900022F008020A4302847047028C4FF6FF7363
:1012A00022F0200203EA0111114301847047028CED
:1012B0004FF6FF7322F0800203EA0111114301840B
:1012C0007047028C4FF6FF7322F4007203EA01218B
:1012D000114301847047028C4FF6FF7322F40062C1
:1012E00003EA0121114301847047028C4FF6FF731A
:1012F00022F4005203EA013111430184704710B512
:101300000123048C8B409C430484038C8A40134348
:10131000038410BD10B50423048C8B409C430484CB
:10132000038C8A401343038410BD828B22F44062F5
:101330008283828B4FF6FF7303EA01210A43828383
:101340007047828B22F00C028283828B0A43828355
:101350007047028B22F440620283028B4FF6FF73C8
:1013600003EA01210A4302837047F0B5048C24F09C
:1013700010040484078B068C4FF6FF7404EA0115F1
:1013800027F4734704EA0331394304EA02220A438B
:1013900026F0A001294341F0100102830184F0BD31
:1013A000028B22F00C020283028B0A4302837047F5
:1013B0002DE9F0410C460E884988A288238905460C
:1013C0000EB3042E26D0082E2E8C4FF6FF7028D098
:1013D00026F480562E84AF8B2E8C00EA022200EA7F
:1013E000013127F473473A4300EA0330104326F4EF
:1013F00020420A4342F48051A8832984E188284688
:10140000BDE8F04191E700F062F9E1882846BDE8C7
:10141000F041C5E7FFF7A9FFE1882846BDE8F041A4
:1014200097E726F480762E84AF8B2E8C00EA01217C
:1014300000EA0310104327F0F307384326F4206234
:101440000A4342F48071A8832984E1882846BDE8D4
:10145000F04176E700210180418001228280C18035
:10146000018170472DE9F0410C4600264988074666
:10147000012501B90226A288012A00D1022520886F
:1014800023890028384610D0FFF76FFFE1883846DF
:10149000FFF75FFF23892A463146384600F017F9E7
:1014A000E1883846BDE8F0417AE700F010F9E188BC
:1014B0003846FFF775FF23892A4631463846FFF73D
:1014C00054FFE1883846BDE8F04142E7406B704781
:1014D000806B7047C06B7047006C704710B50A880E
:1014E0004B88CC881A438B8823431A430B891A43B1
:1014F0004B8989891A430A43A0F8442010BD002172
:10150000018041808180C18001814181818170475A
:10151000002930F8441F02D041F4004101E0C1F33A
:101520000E01018070470029818802D041F004013A
:1015300001E021F00401818070470029818802D0F8
:1015400041F0010101E021F0010181807047002A92
:10155000828901D00A4300E08A43828170478182F8
:10156000704702460020128A0A4200D001207047CC
:10157000C9430182704702460020138A92890B42B8
:1015800002EA010202D0002A00D001207047C943BC
:10159000018270471143A0F848107047002A8289E1
:1015A00001D00A4300E08A43828170470029818884
:1015B00002D041F0080101E021F00801818070476C
:1015C000018921F0070101817047028922F0700230
:1015D0000A430281704700B50346FFF7F6FF1889FA
:1015E00040F00700188100BD70B516460D46602911
:1015F00004464FF0010231460AD000F068F829464F
:101600002046FFF7E2FF208940F00700208170BDEF
:10161000FFF7ABFEF3E730B504894FF6FF7505EA37
:1016200003231343E4B20B432343038130BD10B5BE
:101630000446FFF7F0FF208940F07700208110BDBD
:1016400010B50446FFF7E7FF208940F48040208171
:1016500010BD828822F07002828082880A438280D4
:101660007047028922F00702028102890A4302813F
:101670007047028922F08002028102890A430281B6
:10168000704770B50589048B068C25F007050D435E
:101690004FF6FC410C4040F201110C434FF6FF7134
:1016A00001EA031126F02206114331430581048328
:1016B000018470BD0029818802D041F0800101E0E1
:1016C00021F0800181807047A0F85010704770B5FC
:1016D000048C24F001040484058B048C4FF6FF76FF
:1016E00006EA0313134325F0F3052B4324F00A0203
:1016F0000A4342F001010383018470BD01B5324801
:101700000099416041680029FCD108BD01B54FF442
:101710007A70009941432C48416041680029FCD10E
:1017200008BD29488168491C8160C16811B1C16840
:10173000491EC1604168002902D04168491E4160CC
:10174000704710B5204C207800281CD10120FEF7EE
:1017500017FEFEF732FE0028FBD01C481C4900682B
:10176000B0FBF1F0401EB0F1807F0DD24FF0E021D0
:101770004861184AF02082F8140D00208861072083
:1017800008610120207010BDFEE70F488068704797
:101790000D48C06870470C49886070470A49C860A6
:1017A000704709480078002805D04FF0E020016913
:1017B00041F00201016170474FF0E020016921F022
:1017C0000201016170470000100000203400002079
:1017D00040420F000FE000E01CB501210846FEF773
:1017E00016FF2020009000208DF8060001218DF8C2
:1017F00004108DF8070003208DF8050069461F4886
:10180000FFF748F81CBD1CB501210420FEF7FFFEC0
:101810004FF40050009000208DF806008DF8040071
:101820008DF8070003208DF8050069461448FFF77E
:1018300031F81CBD01461148FFF791B801460F4829
:10184000FFF78FB801460D48FFF794B810B5014671
:101850000A48FFF77AF8012800D0002010BD01B136
:10186000E8E7EBE710B54FF400510548FFF763F8E0
:1018700008B1002010BD012010BD00000000024092
:10188000000802400078282801D00020704701207D
:10189000704710B50446FFF7F5FF002808D000F0A8
:1018A000C3F9204600F032FB442000F032FA012058
:1018B00010BD10B500F0B8F9CC2000F02AFABDE850
:1018C0001040442000F025BA10B50446FFF7DAFFB7
:1018D000002814D000F0A8F9204600F017FBBE2025
:1018E00000F017FA00F0E6F900F0E4F900F0E2F990
:1018F00000F0E0F900F0DEF9C0F34110093010BD4E
:101900002DE9F0410E4607460025FFF7BBFF0028F2
:101910003AD000F0ACF9002836D000F085F938460E
:1019200000F0F4FABE2000F0F4F900F0C3F9044628
:1019300000F0C0F944EA002400F076F9E00B03D08F
:10194000E043401C84B201253846FFF7BDFF44F355
:101950000711C4F3022241EA0211092816D00A280D
:101960001DD00B2826D00C282DD09FEDA20A0021D7
:1019700000EE901AF8EEE00A30EE800A0DB1B1EEFA
:10198000400A86ED000A0120BDE8F081C4F3C000E2
:1019900000EE100AF6EE000AB8EE400A07E0C4F3C3
:1019A000810000EE100AF5EE000AB8EE400A20EEC3
:1019B000200ADDE7C4F3420000EE100AF4EE000A4C
:1019C000B8EE400AF3E704F00F0000EE100AB8EE9C
:1019D000400ADFED890AEAE72DE9F0410D460646A7
:1019E000FFF750FF0028CFD000F01EF9304600F07E
:1019F0008DFABE2000F08DF900F05CF900F05AF984
:101A000000F058F9804600F055F9074600F052F909
:101A10000446092D06D00A2D07D00B2D08D00C2D19
:101A20000BD00EE020F0400004E020F0400006E083
:101A300040F0400020F0200403E040F0400040F07F
:101A4000200400F0F1F8304600F060FA4E2000F07B
:101A500060F9404600F05DF9384600F05AF920463A
:101A600000F057F900F0E0F8304600F04FFA482057
:101A700000F04FF9012087E72DE9F0410C460746B9
:101A8000FFF700FF002837D07D2C01DD7D2404E026
:101A90006FF03600844200DA044600F0C5F838469C
:101AA00000F034FABE2000F034F900F003F900F041
:101AB00001F900F0FFF8064600F0FCF800F0FAF833
:101AC0000546E4B200F0B0F8384600F01FFA4E20A8
:101AD00000F01FF9304600F01CF9204600F019F91B
:101AE000284600F016F900F09FF8384600F00EFA8C
:101AF000482000F00EF9012046E72DE9F0410C46A0
:101B00000746FFF7BFFE002837D07D2C01DD7D247E
:101B100004E06FF03600844200DA044600F084F8F6
:101B2000384600F0F3F9BE2000F0F3F800F0C2F8F8
:101B300000F0C0F800F0BEF800F0BCF8064600F077
:101B4000B9F80546E4B200F06FF8384600F0DEF967
:101B50004E2000F0DEF8204600F0DBF8304600F0C2
:101B6000D8F8284600F0D5F800F05EF8384600F0C6
:101B7000CDF9482000F0CDF8012005E72DE9F0412E
:101B80000646FFF77FFE00282ED000F04DF83046C5
:101B900000F0BCF9BE2000F0BCF800F08BF800F0BB
:101BA00089F800F087F800F085F800F083F8074620
:101BB0007D24C92500F038F8304600F0A7F94E2002
:101BC00000F0A7F8204600F0A4F8284600F0A1F89D
:101BD000384600F09EF800F027F8304600F096F9FD
:101BE000482000F096F80120CEE6EC2000F09EB8E8
:101BF00000F03DB800007F430000803D10B5FFF7C6
:101C0000A0FD01210846FEF702FDCC48402101223B
:101C10000160027100218171C27141710146BDE80C
:101C20001040C748FEF736BE70B5C54C40206083F3
:101C3000C24D0121204629712946FEF72BFE4FF4A3
:101C4000F070FFF75BFD0020287129462046FEF763
:101C500021FE3C20FFF752FD40212046FEF76BFE9F
:101C600004464FF4D270FFF749FD204670BD70B5B1
:101C7000B34D002440206883B04E012031463071BE
:101C80002846FEF707FE0120FFF738FD00203071DF
:101C900031462846FEF7FEFD0F20FFF72FFD4021BD
:101CA0002846FEF748FE00B101242D20FFF726FD4F
:101CB000204670BD70B50824002005E04508FFF7F8
:101CC000D6FF45EAC010C0B2641EE4B2F6D270BDC1
:101CD0002DE9F0419A4E0546402130467183974CDC
:101CE000012121712146FEF7D5FD0120FFF706FDF8
:101CF000002725B1277121463046FEF7CBFD3C2059
:101D0000FFF7FCFC27713046BDE8F0418B49FEF738
:101D1000C1BD70B50546082404E005F00100FFF7D9
:101D2000D7FF6D08641EE4B2F7D270BD2DE9F05FF5
:101D3000DFF808B20126ABF1040B804600279BF8C0
:101D400002003C463546BA4690BBFFF76DFF40B1F6
:101D500000208BF800008BF802008BF80100BDE832
:101D6000F09F4046FFF7D5FFDFF8D09109F1080951
:101D7000FFF77DFF8046FFF77AFF4146B8F1010F7C
:101D800001D1012831D0804501D008460DE09BF8F3
:101D90000000864204D219F80400284001D103E073
:101DA00001D1012000E0002018B1012814D005E085
:101DB0002CE03746092E01D28BF8017019F8042067
:101DC000AA4309F80420FFF783FF761C6800F6B2E7
:101DD00010F0FF0504D006E019F804202A43F0E7CC
:101DE000641CE4B20125082CC2D3412E08D38BF821
:101DF000007017B901218BF802104FF0010A02E0C0
:101E0000BAF1000F02D099F8000038B900208BF821
:101E100000008BF802008BF80100824650469EE7D6
:101E200046480021001F017081704170704710B555
:101E3000FFF7F6FFBDE81040F02077E7F02075E7E8
:101E40002DE9FC473D4C00206D460834215C2954A7
:101E5000401C0828FADBDFF8E4904021A9F10409CE
:101E6000F02099F8008099F8027099F8016089F8DB
:101E70000010002189F80210FFF758FF50B101202F
:101E800000216A5C635C9A4201D0012002E0491C97
:101E90000829F6DB00216A5C6254491C0829FADB38
:101EA00089F8008089F8027089F80160BDE8FC8734
:101EB000224A08321070012000211154401CC0B287
:101EC0000828FAD31D484022001F0270417081701B
:101ED00070471A490022091F487808704A70002884
:101EE00001D101208870704714490831085C70479F
:101EF00070B505465520FFF70CFF0024285DFFF75D
:101F000008FF641CE4B2082CF8D370BD70B5054618
:101F10005520FFF7FEFE0024285DFFF7FAFE641C43
:101F2000E4B2082CF8D370BD044A00210832535C97
:101F30004354491CC9B20829F9D370472400002032
:101F40000000024030B505462DED028B89B0FD48FA
:101F5000B0EE408AF0EE608A0C46854202D0FA4824
:101F6000854204D1042009B0BDEC028B30BD694626
:101F7000284600F021FE009802F001FE53EC182BD9
:101F800002F010FE42D39FEDF10B51EC180B53EC15
:101F9000102B02F08BFD01D10220E4E7B0EE480ADD
:101FA000F0EE680A684600F04AFE039870B351EC00
:101FB000180B02F0B7FD53EC182B9FEDE60BA06059
:101FC00051EC100B02F01AFC02F0ACFDE06003983B
:101FD000206004986060284600F086FE0498002186
:101FE000401EADF818000398ADF82010401EADF863
:101FF0001A1007908DF8221006A92846FEF71EFF3A
:1020000001212846FEF792FF0020ACE70120AAE755
:102010001CB502228DF8042000228DF806208DF8D0
:10202000072003228DF8052008B105201CBD19B139
:1020300001290DD006201CBD01210846FEF7E7FA54
:10204000C64C092207212046FEF798FC80210AE0B1
:1020500001212020FEF7DBFAC14C0922114620465F
:10206000FEF78CFC6115009169462046FEF712FCD4
:1020700000201CBD1CB502228DF8042000228DF822
:1020800006208DF8072003228DF8052008B10520D1
:102090001CBD19B101290DD006201CBD0121084627
:1020A000FEF7B5FAAD4C092206212046FEF766FC84
:1020B00040210AE001212020FEF7A9FAA84C0922BC
:1020C00008212046FEF75AFCA115009169462046DA
:1020D000FEF7E0FB00201CBD7CB502228DF8042039
:1020E00000228DF806208DF8072003229D4C9E4D7E
:1020F0008DF8052018B1012822D005207CBD11B132
:1021000001291BD10BE001210220FEF780FA0922F0
:102110000E212046FEF732FC4FF480412CE00121D5
:102120008020FEF774FA092206212846FEF726FCD5
:10213000402112E0FEF7AEFB00207CBD06207CBDF6
:1021400079B10129FAD18020FEF761FA09221146FE
:102150002846FEF713FC4FF40071009169462846AB
:10216000E8E701210220FEF752FA09220F2120465A
:10217000FEF704FC4FF40041009169462046D9E780
:102180001CB502228DF8042000228DF806208DF85F
:10219000072003228DF8052008B105201CBD19B1C8
:1021A00001290DD006201CBD01210220FEF72FFAC7
:1021B0006C4C032209212046FEF7E0FB61150AE082
:1021C00001212020FEF723FA654C03220721204637
:1021D000FEF7D4FB8021009169462046FEF75AFBAA
:1021E00000201CBD1CB502228DF8042000228DF8B1
:1021F00006208DF8072003228DF8052008B1052060
:102200001CBD19B101290DD006201CBD01210220E1
:10221000FEF7FDF9534C032208212046FEF7AEFBE2
:10222000A1150AE001212020FEF7F1F94C4C032210
:1022300006212046FEF7A2FB402100916946204678
:10224000FEF728FB00201CBD7CB502228DF804207F
:1022500000228DF806208DF8072003223F4C434DC5
:102260008DF8052018B1012821D005207CBD11B1C1
:1022700001291AD10AE001210846FEF7C8F9032214
:1022800002212046FEF77AFB04212AE001211020DA
:10229000FEF7BDF9032205212846FEF76FFB20213A
:1022A00011E0FEF7F7FA00207CBD06207CBD71B17D
:1022B0000129FAD11020FEF7AAF9032206212846A7
:1022C000FEF75CFB4021009169462846E9E70121C1
:1022D0000846FEF79CF9032211462046FEF74EFB06
:1022E0000821009169462046DBE72DE9FC410222E6
:1022F0008DF8042000228DF806208DF80720032297
:102300001B4C40271B4D8DF80520A61550B14FF0F2
:102310008008012841D0022858D0032870D0052019
:10232000BDE8FC8111B1012935D125E0012104204E
:10233000FEF76DF9032206212046FEF71FFB0097EA
:102340007AE000000010004000140040000000008F
:10235000000000000000000080842E4100000240C8
:102360000014024000040240001C02400010024021
:10237000000802400020024001213046FEF747F9E4
:10238000032205212846FEF7F9FA202144E0FEF752
:1023900081FA0020C4E70620C2E759B10129FAD129
:1023A0003046FEF734F9032206212846FEF7E6FA06
:1023B000009732E001210420FEF729F903220721CA
:1023C0002046FEF7DBFACDF8008035E061B1012947
:1023D000E1D13046FEF71BF9032207212846FEF71C
:1023E000CDFACDF8008018E001210420FEF70FF9A6
:1023F000032208212046FEF7C1FA00961CE0FFE701
:1024000071B10129C7D13046FEF701F9032202213B
:102410002846FEF7B3FA0421009169462846B6E73C
:1024200001210420FEF7F3F8032209212046FEF7DC
:10243000A5FA4FF40071009169462046A7E72DE9FF
:10244000FC4102268DF8046000228DF806208DF8EC
:1024500007200322FD4CFE4D8DF80520012738B1E1
:10246000012822D0022839D0032853D0052057E76D
:1024700011B1012917D106E001210846FEF7C7F87E
:10248000022200214FE001218020FEF7C0F8022245
:102490000A212846FEF772FA4FF480612BE0FEF71E
:1024A000F9F900203CE706203AE761B10129FAD1A9
:1024B0008020FEF7ACF802220B212846FEF75EFAD8
:1024C0004FF4006117E001210846FEF7A0F8022250
:1024D00001212046FEF752FA009628E079B1012941
:1024E000E1D18020FEF793F802220C212846FEF766
:1024F00045FA4FF48051009169462846CFE7012103
:102500000846FEF784F8022211462046FEF736FA06
:10251000042119E071B10129C5D10802FEF777F84D
:102520000222CC4C00212046FEF728FA009769468B
:102530002046B4E701210846FEF769F8022203218C
:102540002046FEF71BFA08210091F0E77CB5022235
:102550008DF8042000228DF806208DF80720032234
:10256000BD4CBE4D8DF8052038B1012826D002287B
:102570003DD0032855D005207CBD11B101291BD1C8
:102580000AE001210220FEF742F80222062120463D
:10259000FEF7F4F9402160E001210820FEF737F84A
:1025A00002220C212846FEF7E9F94FF4805145E05C
:1025B000FEF770F900207CBD06207CBD61B10129C9
:1025C000FAD10820FEF723F802220D212846FEF753
:1025D000D5F94FF4005131E001210220FEF717F840
:1025E000022207212046FEF7C9F9802135E061B1BA
:1025F0000129E1D10820FEF70AF802220E2128461F
:10260000FEF7BCF94FF4804118E001210220FDF7EC
:10261000FEFF022208212046FEF7B0F94FF4807138
:102620001BE079B10129C7D10820FDF7F0FF022294
:102630000F212846FEF7A2F94FF4004100916946A8
:102640002846B5E701210220FDF7E1FF022209211A
:102650002046FEF793F94FF4007100916946204639
:10266000A6E72DE9FC4102278DF8047000228DF8C1
:1026700006208DF807200322744E774C784D8DF894
:10268000052038B101282BD0022853D003286AD066
:10269000052045E6402721B1012909D002291DD195
:1026A00015E001210846FDF7B2FF022206212EE0C7
:1026B00001210220FDF7ABFF022204212046FEF794
:1026C0005DF9102134E0FEF7E5F8002028E601214D
:1026D0000420FDF79CFF022206210DE006201FE6E4
:1026E000802771B1012919D00229F7D101210420D5
:1026F000FDF78DFF022207212846FEF73FF90097DC
:102700003FE001210846FDF782FF02220721304603
:10271000FEF734F9694630460097D4E701210220DC
:10272000FDF775FF022205212046FEF727F920213B
:10273000009133E061B10129D0D10420FDF767FF9A
:10274000022208212846FEF719F94FF4807117E09C
:1027500001210220FDF75BFF022200212046FEF747
:102760000DF90121E4E779B10129B7D10420FDF782
:102770004EFF022209212846FEF700F94FF40071AE
:102780000091694628469EE701210220FDF73FFFA0
:10279000022201212046FEF7F1F800976946204603
:1027A00091E72DE9FC4102268DF8046000228DF8A6
:1027B00006208DF807200322244C8DF8052048B10F
:1027C000254D0827012834D0022856D003286DD083
:1027D0000520A5E521B101290DD0022927D11AE054
:1027E00001210846FDF713FF012200212046FEF7D4
:1027F000C5F8012109E001210846FDF708FF012283
:1028000005212046FEF7BAF82021009169E0FEF785
:1028100041F8002084E501210846FDF7F8FE012279
:102820000F212046FEF7AAF84FF40041EDE70620FD
:1028300076E5B9B10129FAD10220FDF7E8FE0122BF
:1028400003212846FEF79AF800973DE00000024079
:10285000001C02400020024000040240000C024024
:102860000008024001210846FDF7D1FE0122114671
:102870002046FEF783F8009633E061B10129D6D1F6
:102880000220FDF7C4FE01220A212846FEF776F851
:102890004FF4806117E001210846FDF7B8FE0122E0
:1028A00002212046FEF76AF80421AEE779B101293A
:1028B000BDD10220FDF7ABFE01220B212846FEF719
:1028C0005DF84FF400610091694628469FE70121B9
:1028D0000846FDF79CFE012203212046FEF74EF834
:1028E00000976946204692E72DE9FC4102228DF8C7
:1028F000042000228DF806208DF807200322A04C2A
:10290000A04D8DF80520661540B12715012826D069
:1029100002283CD0032853D0052001E511B101293C
:102920001BD10BE001210846FDF771FE01220821B1
:102930002046FEF723F84FF480715DE0012110205E
:10294000FDF765FE012209212846FEF717F80096DB
:1029500044E0FDF79FFF0020E2E40620E0E459B1E7
:102960000129FAD11020FDF752FE01220A21284642
:10297000FEF704F8009731E001210846FDF747FE15
:10298000012209212046FDF7F9FF009635E061B1EB
:102990000129E2D11020FDF73AFE01220D2128463F
:1029A000FDF7ECFF4FF4005117E001210846FDF759
:1029B0002EFE01220A212046FDF7E0FF00971CE0D1
:1029C00079B10129C9D11020FDF721FE01220E2184
:1029D0002846FDF7D3FF4FF4804100916946284611
:1029E000B7E701210846FDF712FE01220B21204620
:1029F000FDF7C4FF4FF40061009169462046A8E747
:102A00000B466149884202D1114618466CE7B0F185
:102A1000804F05D05D49884205D11146184620E611
:102A200011461846BDE65A49884202D11146184659
:102A30008CE55849884202D111461846FFE45649B0
:102A4000884202D1114618464FE45449884203D1C6
:102A500011461846FFF7F8BB5149884203D1114689
:102A60001846FFF7BFBB4F49884203D111461846AD
:102A7000FFF786BB4C49884203D111461846FFF741
:102A80002BBB4A49884203D111461846FFF7F2BAD8
:102A90004749884203D111461846FFF7B9BA0420C6
:102AA000704710B50446086886B0401E984202D2AE
:102AB000032006B010BD7020ADF800000120ADF875
:102AC000020002200293ADF80C0032B1012A0DD0B1
:102AD000022A14D0032A23D11AE069462046FEF7C1
:102AE0002FFA08212046FEF76CFB19E069462046C4
:102AF000FEF752FA08212046FEF769FB10E069460E
:102B00002046FEF785FA08212046FEF76AFB07E01B
:102B100069462046FEF7B6FA08212046FEF767FB15
:102B20000020C6E730B410EE103A224CA34201DD7B
:102B30000B6805E0B5EEC00AF1EE10FA02D80023EA
:102B400030BCAEE70B685B1E00EE903A6424F8EEF2
:102B5000600A20EE800ABCEEC00A10EE103AB3FB09
:102B6000F4F3EDE730B4CC689C4202D230BC0320D1
:102B700070470D686D1E5D43B5FBF4F330BC90E704
:102B8000000002400010024000000140000400402C
:102B900000080040000C00400004014000400140DB
:102BA000004401400048014000180040001C004063
:102BB000002000400000C8427FB504460D4668462C
:102BC000FDF790FC4FF6FF70A860B4F1804F02D083
:102BD000A1498C4205D1039828604FF0FF3068600E
:102BE00028E09E498C420BD09D498C4208D09D49DB
:102BF0008C4205D09C498C4202D09C498C4201D128
:102C0000019915E09A498C4211D09A498C420ED014
:102C100099498C420BD099498C4208D098498C42F2
:102C200005D098498C4202D097498C4205D103992E
:102C3000C5E90010002004B070BD0220FBE72DE9BB
:102C4000F04704462DED028BB0EE408AF0EE608A2C
:102C50000025006801F093FF53EC182B01F0A2FF50
:102C600007D22561E56003206561BDEC028BBDE8FC
:102C7000F0879FED860B51EC180B53EC102B01F0F5
:102C800015FF03D12561E560656124E06068B0F55A
:102C9000803F01D2401C60602561D4E9018627682D
:102CA000A946761C6D1CB7FBF5F001F068FF53ECEC
:102CB000182B01F0A3FD01F035FFC4E903054045E1
:102CC00001D9B542EED9B54207D9C4F81090C4F87D
:102CD0000C90C4F814900420C7E751EC180B01F0D5
:102CE00021FF60610020C0E75C4910B5884202D135
:102CF000012108463AE0B0F1804F05D05C49884296
:102D000005D10121022045E00121084642E0594950
:102D1000884202D1012104203CE04F49884202D17F
:102D20000121082036E05449884202D101211020B7
:102D300030E05249884202D1012120202AE048494E
:102D4000884202D10121022010E04649884202D186
:102D5000012108040AE04449884202D101214804C3
:102D600004E04249884204D101218804FDF777FC40
:102D700012E04349884202D1012140200AE0414942
:102D8000884202D10121802004E03F49884203D1DA
:102D900001218015FDF759FC002010BD2F4910B509
:102DA000884202D1002101203DE0B0F1804F05D0E2
:102DB0002F49884205D10021022048E0002101204E
:102DC00045E02C49884202D1002104203FE02249FD
:102DD000884202D10021082039E02749884202D1E7
:102DE0000021102033E02549884202D10021202013
:102DF0002DE01B49884202D10021022013E019492D
:102E0000884203D100214FF480300CE016498842FB
:102E100003D100214FF4003005E01449884205D168
:102E200000214FF48020FDF71AFC12E0144988427B
:102E300002D1002140200AE01249884202D100213B
:102E4000802004E01049884203D100218015FDF75D
:102E5000FCFB002010BD0000000C00400000014001
:102E6000000401400040014000440140004801408E
:102E70000004004000080040001000400014004022
:102E800000180040001C004000200040000000002E
:102E900000000000FB49884222D0FB49884201D152
:102EA00001207047F949884201D102207047F84952
:102EB000884201D103207047F649884201D104209D
:102EC0007047F549884201D105207047F34988428F
:102ED00001D106207047F249884201D1072070478E
:102EE000002070471CB5044601212020FDF7B7FBE8
:102EF00002208DF8040000208DF8060001208DF8D6
:102F0000070003208DF80500C4B1012C15D1012163
:102F10004020FDF77CFBE34C08220E212046FDF704
:102F20002DFD082209212046FDF728FD4FF484419C
:102F3000009169462046FDF7ADFC1CBD012104202F
:102F4000FDF765FBD84C082206212046FDF716FD4B
:102F5000082207212046FDF711FDC021E8E71CB536
:102F6000044601214804FDF770FB02208DF804009F
:102F700000208DF8060001208DF8070003208DF851
:102F80000500BCB1012C14D101210820FDF73FFB45
:102F9000C64C072205212046FDF7F0FC072206213A
:102FA0002046FDF7EBFC6021009169462046FDF7C5
:102FB00071FC1CBD01210846FDF729FBBC4C072212
:102FC00002212046FDF7DAFC072203212046FDF707
:102FD000D5FC0C21E8E71CB5044601211020FDF7C3
:102FE0003EFB02208DF8040000208DF80600012031
:102FF0008DF8070003208DF80500BCB1012C14D119
:1030000001210220FDF703FBAA4C072206212046DE
:10301000FDF7B4FC072211462046FDF7AFFCC021A6
:10302000009169462046FDF735FC1CBD012108468C
:10303000FDF7EDFA9E4C072209212046FDF79EFC84
:1030400007220A212046FDF799FC4FF4C061E7E70B
:10305000F0B5044685B08B480C2600250F4600923B
:1030600084420FD10846FFF7B6FF2520ADF80A606D
:10307000ADF806508DF81000ADF80C50ADF80850C2
:10308000ADF80450804884420FD13846FFF767FFFF
:103090002620ADF80A60ADF806508DF81000ADF8A6
:1030A0000C50ADF80850ADF804507B4884420FD165
:1030B0003846FFF717FF4720ADF80A60ADF8065015
:1030C0008DF81000ADF80C50ADF80850ADF8045074
:1030D00069462046FDF7BDFC01212046FDF72AFD8B
:1030E000012240F225512046FDF7C3FD01208DF855
:1030F00013008DF811502046FFF7CCFE8DF812001A
:1031000004A8FDF7C8F805B0F0BD13B5044680214A
:103110002046FDF7C6FD0028F9D09DF80410204692
:10312000BDE81C40FDF72CBD70B50C46054603E01C
:103130002846641CFFF7E9FF21780029F8D170BD0B
:1031400070B55D4D35F81020202A14D2A5F1200469
:1031500034F810301F2B02D9002324F81030564EBB
:103160009BB2103606EB401699555B1C24F81030C4
:10317000521C25F8102070BD10B5424C40F225516C
:103180002046FDF798FD002805D0A088BDE8104036
:10319000C1B20020D4E710BD10B540F225513A4825
:1031A000FDF789FD002807D03748001D0088BDE8DD
:1031B0001040C1B20120C3E710BD10B540F2255147
:1031C0003248FDF778FD002807D03048001D008800
:1031D000BDE81040C1B20220B2E710BD10B540F208
:1031E00025512B48FDF767FD002807D02848001D12
:1031F0000088BDE81040C1B20320A1E710BD10B5A2
:10320000244C40F225512046FDF755FD002805D0FD
:10321000A088BDE81040C1B2042091E710BD10B5F0
:1032200040F225511C48FDF746FD002807D01A48FA
:10323000001D0088BDE81040C1B2052080E710BD28
:1032400010B540F225511548FDF735FD002807D08F
:103250001248001D0088BDE81040C1B206206FE78B
:1032600010BD10B540F225510D48FDF724FD002892
:1032700024D00B48001D0088BDE81040C1B20720D3
:103280005EE700000010014000440040004800409C
:10329000004C004000500040001401400078004005
:1032A000007C00400018024000080240000C024070
:1032B00000000240000402406800002010BDF0B58C
:1032C000FFF7E8FD2B4E002236F81040B4B1A6F10E
:1032D0001005002735F810101F2901D925F81070A6
:1032E000244A35F81010103202EB4013CA5CCF5458
:1032F000491C25F81010641E26F810401046F0BD39
:1033000000B5FFF7C7FD1B4931F8100008B10020D8
:1033100000BD012000BDF0B500240E4684462746BE
:10332000FFF7EEFF08B10020F0BD9AB1551E6046D0
:10333000FFF7E6FF0028FAD16046FFF7C0FF3055DF
:103340000A2805D0AC4201DA641CA4B2002FEED0EA
:10335000002030552046F0BD00B5FFF79BFD054A23
:10336000002122F81010203A22F81010103222F812
:10337000101000BD680000202DED048BC0B09FED43
:103380006A9ADFED6A9ACDED329A9FED690A0121C2
:103390008DED330AB3EE040A8DED340A2CA800F04B
:1033A000B3F900F0F5F8FEF7CCF9FEF715FADFF8FF
:1033B00084B14FF4E13201215846FFF749FE9FEDF9
:1033C0005E0B4FF0804A37A954465046FEF7BAFDCF
:1033D000012200212046FFF713FBB0EE490A00222C
:1033E00037A92046FFF79EFBFEF708FC0024FEF7F6
:1033F0001EFD3BAE07E006EBC400FEF795FD641C26
:10340000E4B2FEF71BFD0028F5D1022C04D04CA13C
:103410005846FFF789FEFEE7002506EBC5000C21A4
:10342000FEF7DAFA6D1CEDB2A542F6D3FEF741FACB
:10343000FEF7DEFB0028FBD035A93BA8FEF760FABB
:1034400036A93DA8FEF75CFAFEF733FADDED360A41
:103450009DED350AF4EEC00AF1EE10FA04DD2020ED
:10346000FEF7E8F9002004E002D20020FEF7E2F9BE
:103470002020FEF7E3F9DDED360A9DED350A9DEDDE
:103480002C1ADDED301A70EEC08ADDED2D0A9DEDAF
:103490002F0A364960EE800A41EE280A9DED2E1A69
:1034A00041EE210A9DED311A8DED300ACDED2F8AC6
:1034B00030EE818A18EE100A8DED318A884202DDE5
:1034C000B0EE698A06E0B5EEC08AF1EE10FA01D2DC
:1034D000B0EE498A0022B0EE480A37A95046FFF7FD
:1034E00021FB18EE100A01F0EDFB8046894618EE2C
:1034F000900A01F0E7FB06460F46369801F0E2FB22
:1035000004460D46359801F0DDFB8DE8F00341ECF3
:10351000100B174953EC102B06A800F011F906A95F
:103520005846FFF701FE83E7000000000000C84294
:10353000CDCCCC3C001001400000000000408F408A
:1035400057652065787065637420322064657669FC
:10355000636573206F6E20312D776972652E20515F
:10356000756974696E67210A000000000000C84296
:10357000484E00087047FEE7FEE7FEE7FEE77047AB
:1035800070477047704710B5FEF7CBF810BD0000CC
:10359000544810B5016841F4700101605248016857
:1035A00041F001010160504A0021083211600268B7
:1035B0004E4B1A400260031D4D4A1A60026822F405
:1035C0008022026048480C30016000F03CF8454918
:1035D0004FF000608039086010BD70B5424D08356D
:1035E0002868444B444910F00C0004D05E100428B5
:1035F00003D0082803D00B601BE00E6019E03A4AA4
:10360000121D1068C0F38054106800F03F0014B120
:10361000B6FBF0F001E0B3FBF0F013681268C3F3FF
:1036200088135843C2F30142521C5200B0FBF2F01F
:1036300008602868304AC0F30310121D105C0A6845
:10364000C2400A6070BD0CB5002227490092019269
:10365000086840F4803008604FF4A043086800F424
:10366000003001900098401C0090019810B900981B
:103670009842F3D10868800332D5012001901A489E
:103680004030026842F0805202601C48026842F4F6
:10369000404202601448083002680260026802601A
:1036A000026842F480520260031F154A1A600A68D9
:1036B00042F080720A600A689201FCD5114A40F219
:1036C00002711160016821F003010160016841F09D
:1036D000020101600168C1F381010229FAD10CBD28
:1036E00001920CBD88ED00E000380240FFFFF6FEBD
:1036F000103000240024F40034000020007000404A
:1037000008544107003C0240D0ED060A90ED070A3C
:10371000002930EE801A90ED080A31EE001A80ED93
:10372000001AB0EE001A50EE410AC0ED010A80ED19
:10373000020A03D00021C1600161416170470000AD
:103740000FB41CB5074B06AA7B4469460090059848
:1037500000F0CDFA0020694600F0DCFA1CBC5DF8F0
:1037600014FB0000C905000070B5044685690068B7
:10377000C10601D5302600E02026C00707D070BD65
:10378000D4E9012130469047206A401C20626D1E1A
:10379000F6D570BD70B5044685690078C00707D1BD
:1037A00070BDD4E9012120209047206A401C20628E
:1037B0006D1EF6D570BD2DE9F0474FF0000A894621
:1037C0000446C0F820A02046E1688847002876D04B
:1037D000252806D0D4E901219047206A401C2062A8
:1037E000F1E7E168204600258847C4F81CA006469A
:1037F0000027C4F818A02A2E09D0304600F0D4FFC4
:1038000038B304EB8708303EC8F8186019E059F85F
:10381000041B204604EB87029161E1688847012F71
:10382000064618D1E069002820DA25F020051DE0C1
:10383000D8F8180000EB800006EB40003038C8F8DC
:1038400018002046E1688847064600F0ADFF0028D2
:10385000EED1012F0AD02E2E08D12046E1688847EC
:103860007F1C0646022F45F02005C4DBA069002816
:1038700003DA404245F00105A061E80701D025F0D8
:103880001005B6B1A6F14100192802D8203645F43A
:1038900000654A463146204625604D46FCF7B4FC9B
:1038A00058B1012806D0ED1D25F0070000F10809E8
:1038B00089E704E005F1040985E730468AE7206AD4
:1038C000BDE8F08770477047704770472DE9FF4F9C
:1038D0000C461E464FF0FF378BB0D2E90001DDF8F1
:1038E00060800A908A46C1F30A5505B93D46002119
:1038F00008464FF00000BAF1000F00F4400005DA6E
:1039000000EB80004FF4400101EA50004FEA90596B
:10391000B9F1010F00DDB9460A9850EA4A000ED00D
:1039200044F61050A5F2FF3545432F14B8F1000FAF
:103930001ED07542291E1EDDC9F100021CE0B8F13F
:10394000010F4FF0000001D0302103E0F24305E009
:103950002154401CB042FBDB3046002200212154A0
:103960000B99C1F80880C1E900200FB0BDE8F08FC5
:10397000BD1B6D1CDEE74A4600DA694206A800F06E
:1039800059FA06AB93E8070003AB83E807005046FB
:103990000A9900F036FB8DE80700A0F500501F38AB
:1039A00000900398002D09DD42F21F014A460844A9
:1039B00003A90390684600F095FD08E0A0F50050CB
:1039C0004A461F3803A90390684600F09FFD8DE822
:1039D00007000004000C03D04FF0FF30410800E066
:1039E0001046B8F1000F03D00022009215461EE0E9
:1039F000751E05D400F098F9303262556D1EF9D568
:103A0000B3460122084302D000227F1C04E0207844
:103A1000302801D100227F1E002A099786D01DE0A0
:103A2000112D07DA00F080F9303262556D1C50EA32
:103A30000102F5D1084302D00098C8B10EE0002180
:103A4000681E05E0235C625C63542254401E491CDE
:103A50008142F7DBAB46A81B401E0990002004F80A
:103A60000B000B98099AC0F80880C0E9002B7CE78E
:103A700011264FF0000859E72DE9F04F884604461B
:103A8000D21D22F0070191B0D1E90001CDE90A0170
:103A900000F072FE02460B98C00F01D02D2007E007
:103AA0002068810701D52B2002E0202101EAC00017
:103AB000032A099001D0072A05DB03464146204628
:103AC00000F078F90BE12078800601D5E06900E08C
:103AD0000620B8F1650F814606D0B8F1660F18D000
:103AE000B8F1670F70D131E00020B9F1110F0090EB
:103AF00001DB112301E009F101030AAA01A90CA8C5
:103B0000FFF7E4FEDDE90C70002609F101058346AC
:103B100047E001204B4600904FF000470AAA01A958
:103B20000CA8FFF7D3FEDDE90DB00C995D46002629
:103B300010B909F101000D18B9EB050003D4C0F16B
:103B4000FF3609F10105A5EB09002BE0B9F1010FE2
:103B500001DA4FF001090020B9F1110F0090484639
:103B600001DD112300E003460AAA01A90CA8FFF712
:103B7000ADFEDDE90C704D46002683462078000737
:103B80000AD4AB4500DA5D4601A8012D04DD4119D8
:103B900011F8011C302907D04F4502DA17F1040F44
:103BA00004DA012082460FE06D1EEEE7002F02DCF2
:103BB000ED1B3E4403E0781CA84200DD7D1CB81BD1
:103BC00000F1010A4FF000472078000703D4AA450E
:103BD00001DB4FF0FF3A0021B7F1004F0DF1430830
:103BE0008DF8431024D002202B23002F01DA7F42CE
:103BF0002D230A21021EA0F1010000DC5FB197FB1A
:103C0000F1FC97FBF1F201FB1C7C17460CF1300C28
:103C100008F801CDEEE7A8F101000370218809053D
:103C200001D5452100E06521A0F1010800F8011C43
:103C300009980FA9A1EB0807FF1D00B10120411948
:103C400001EBEA70A1693844081A401EA06120788F
:103C5000C00602D42046FFF787FD099828B1D4E9B1
:103C600001219047206A401C20622078C00622D59E
:103C70002046FFF779FD1EE0002E04DBB34502DD90
:103C800001A8805D00E03020D4E901219047206A3E
:103C9000401C2062761CAAF101005FEA000A0AD1EA
:103CA00000F03EF8C0680168405CD4E9012190470B
:103CB000206A401C2062281EA5F10105DCDC07E01B
:103CC000D4E9012118F8010B9047206A401C2062BA
:103CD000381EA7F10107F3DC2046FFF75BFD032048
:103CE00011B043E601694A1C02610878704700B5CB
:103CF0008FB0CDE901310021059105497944CDE925
:103D0000031011466846FFF756FD0FB000BD0000D6
:103D1000E5FFFFFF0A6802F8010B0A607047000028
:103D2000004870479801002030B5B0F10A024FEA10
:103D3000900E71F100034EEA817EB0EB0E0061EB54
:103D400091014FEA101E4EEA017E10EB0E0041EB8E
:103D500011114FEA102E4EEA016E10EB0E0041EBEE
:103D600011214FEA104E4EEA014E10EB0E0041EBCE
:103D70001141401841F100014FEAD00040EA417082
:103D80004FEAD10110EB80054FEA810444EA9074B8
:103D900044EB01046D1944EB0404521BA3414FF0A2
:103DA000000348BF0A3200D530BD401C41F100017C
:103DB00030BD00002DE9F0411F460446032601688E
:103DC000072A01F4006004DB08B116A505E016A57A
:103DD00003E008B115A500E015A521F01000206052
:103DE000A069C01EA0610FB1401EA0612046FFF770
:103DF000BBFC4FB1D4E9012138469047206A401CF2
:103E00002062C01C206206E0206AFAE7D4E90121A2
:103E100015F8010B9047761EF8D22046FFF7BAFC42
:103E2000BDE8F0814E414E006E616E00494E460085
:103E3000696E66002DE9F047814616468AB0334820
:103E400078440DC88DE80D0030487844801C03ACE0
:103E50000DC884E80D0041F69B300844372190FBE3
:103E6000F1F290FBF1F5A5F1800501FB12041B3C7A
:103E700002D56442012000E00020DFF890A08046D7
:103E80000027FA44AAF1BE0A0DE0E00709D0324645
:103E9000684607EB47010AEB810100F037FB8DE82C
:103EA000070064107F1C002CEFD1184F7F44AC3FFB
:103EB00018E0E80714D007EB04100DF1180A90E899
:103EC0000E008AE80E00C068F04201D198190890EF
:103ED000324606A903A800F019FB03AB83E80700EC
:103EE0006D10641C002DE4D132466946B8F1000F14
:103EF00003A802D000F0F6FA01E000F007FBC9E9E0
:103F00000001C9F808200AB0BDE8F087EC0F0000F6
:103F100000487047780100207546FFF7F9FFAE466C
:103F200005006946534620F00700854618B020B5C5
:103F3000FCF79AF9BDE820404FF000064FF000076B
:103F40004FF000084FF0000B21F00701AC46ACE841
:103F5000C009ACE8C009ACE8C009ACE8C0098D46AE
:103F6000704710B50446AFF300802046BDE810400E
:103F7000FCF766B94FF0013C50F8042B51F8043BB4
:103F80009A4221D1A2EB0C03934313EACC1317D12D
:103F900050F8042B51F8043B9A4215D1A2EB0C03C4
:103FA000934313EACC130BD150F8042B51F8043B84
:103FB0009A4209D1A2EB0C03934313EACC13DBD052
:103FC0004FF00000704700BFD01A01BAB1FA81F17A
:103FD00001F0180122FA01F0CB40C1F12001DBB25F
:103FE000C0B2C01A2CFA01F3D11A914311EAC311DD
:103FF000E6D1704701491820ABBEFEE7260002005B
:1040000070475FEA400C08BF91F0000F4FEA8C2325
:104010004FEAC12243EA51514FEA1C5018BF00F544
:10402000F0404FEA300018BF41F000415FEA6C5C9D
:1040300000F02980BCF1FF3F08BF40F0804070478E
:10404000130C06BF12044FF0100C4FF0000C130EAF
:1040500004BF12020CF1080C130F04BF12010CF183
:10406000040C930F04BF92000CF1020CD30F04BF99
:1040700052000CF1010C11464FF00002A0F11F009C
:10408000A0EB0C00704711F0004F08BF704731F0F3
:1040900000413FF4D5AF0B0C06BF09044FF0100CE4
:1040A0004FF0000C0B0E04BF09020CF1080C0B0FB3
:1040B00004BF09010CF1040C8B0F04BF89000CF143
:1040C000020CCB0F04BF49000CF1010CCCF1200312
:1040D000A0EB0C0022FA03F302FA0CF241EA03010E
:1040E00000F10100704720F07F4C80EA030023F0CC
:1040F0007F47ACEB070303F57C5300F0004003F16E
:10410000FF032DE980494FEA154B09B44FEA1443E8
:1041100025EA0B4E24EA03480FF2042606EB132788
:1041200049083E785FEA320203FB0667C7F50007DD
:1041300007FB06F64FEA54374FEAD64606F1020669
:1041400007FB066CCCF1005C4FEA1C472CEA074CDD
:1041500007FB06F40CFB06F504EB15464FEA961632
:1041600034BF00204FF000404FEAD13706FB07FC78
:104170004FEA1C4C0CFB0BF7D21B03FB0CF761EB5B
:1041800007010CFB0EF7B0EB074072EB17420CFB7C
:1041900008F734BFA2EB0742B2EB074261EB1741CD
:1041A0004FEA0C444FEA910706FB07FC4FEA1C4C10
:1041B0000CFB0BF7B0EBC74072EB573203FB0CF76D
:1041C00034BFA2EBC742B2EBC74261EB57310CFBE5
:1041D0000EF7B0EBC70072EB57720CFB08F734BF59
:1041E000A2EBC702B2EBC70261EB5771039F4FEA24
:1041F000816141EA921104EBCC044FEAD1374FEAD6
:10420000826206FB07FC42EA90124FEA80604FEAA6
:104210001C4C0CFB0BF7D21B03FB0CF761EB0701EB
:104220000CFB0EF7B0EB074072EB17420CFB08F7E4
:1042300034BFA2EB0742B2EB074261EB17414FEAF2
:104240008C554FEA910704EB9C2406FB07FC4FEAD0
:104250001C4C0CFB0BF7B0EBC74072EB573203FB67
:104260000CF734BFA2EBC742B2EBC74261EB573148
:104270000CFB0EF7B0EBC70072EB57720CFB08F7A4
:1042800034BFA2EBC702B2EBC70261EB577115EB6B
:104290004C254FEA816141EA92114FEA82624FEA6E
:1042A000D13742EA901206FB07FC44F100044FEAC2
:1042B00080604FEA1C4C0CFB0BF7D21B03FB0CF786
:1042C00061EB07010CFB0EF7B0EB074072EB1742F6
:1042D0000CFB08F734BFA2EB0742B2EB074261EBDD
:1042E000174115EB1C154FEA813141EA92414FEA23
:1042F000823242EA90424FEA80304FEA0C7644F133
:10430000000448EA03434EEA0B484FF0000EB2EBBC
:10431000080C71EB030724BF624639464EEB0E0EC4
:104320004FF0000B0018524149414BEB0B0BB2EB25
:10433000080C71EB03077BF1000B24BF6246394682
:104340004EEB0E0E4FF0000B0018524149414BEB63
:104350000B0BB2EB080C71EB03077BF1000B24BFD6
:10436000624639464EEB0E0E51EA020718BF46F080
:10437000010616EB0E7655F1000254F1000103D54B
:10438000BDE88901BDE80088BDE88901BDE80048B5
:10439000B619524141EB0101A3F10103704780803E
:1043A0007F7E7D7C7B7A797877767675747372718F
:1043B00071706F6E6E6D6C6C6B6A6A696868676647
:1043C00066656464636362616160605F5F5E5E5DD9
:1043D0005D5C5C5B5B5A5A5959585857575656554D
:1043E00055555454535352525251515050504F4FAF
:1043F0004F4E4E4D4D4D4C4C4C4B4B4B4A4A4A49FF
:104400004949484848474747474646464545454441
:104410004444444343434342424242414141002BCE
:1044200026D4770021D01CB54FEA370703B44FF0EC
:1044300010004FF010014FF000000FBCBDE810401D
:104440000BF1010BBBF1010F08BF5FEA170722BF99
:1044500012F1010211F101014FF0004143F100039B
:1044600000F0004043EA00007047F9D35708DAE74C
:1044700046EA064613F1400F4FEA16461FDD13F1D8
:10448000200FDFBF16430A46002120335B42C8D00D
:10449000C3F1200746EA064602FA07F74FEA164636
:1044A00046EA0706C3F1200722FA03F201FA07F7EA
:1044B00021FA03F14FF0000342EA0702B1E746EAAE
:1044C000020646EA06464FEA164646EA0106BCBF21
:1044D00046EA0646360C4FF000034FF000024FF05C
:1044E00000019EE72DE9C048934630B491E83800BA
:1044F00007C831EA400C48BF34EA430C03D5FFF744
:10450000F2FDFFF78CFFF0BCBDE800882DE9C04844
:10451000934630B491E8380007C810F0804F08BFC8
:1045200013F0804F03D100F005F8FFF778FFF0BCDF
:10453000BDE8008820F07F4780EA030023F07F4C2D
:1045400007EB0C03A3F57C5300F00040A3F1FE033E
:1045500092F0000F00F0B38095F0000F00F077802C
:104560002DE901494FEA11404FEA144621EA00487B
:1045700000FB06FC24EA064708FB06F607FB08F8E2
:1045800000FB07F718EB06484CEB164C4FEA124BB2
:1045900018EB07484FEA15464CEB174022EA0B4E42
:1045A0000BFB06FC25EA06470EFB06F607FB0EFE94
:1045B0000BFB07F71EEB064E4CEB164C4FF00006BC
:1045C0001EEB074E4CEB174B18EB0B0840F10000AD
:1045D00018EB0E0B58EB000840F100008F1A4FF05B
:1045E00000013CBFC943661B14BFB5EB040C00219E
:1045F0003CBFC943F61B4FEA17444EEA8E0E27EA2A
:1046000004454FEA1C4704FB07622CEA074C05FBF4
:1046100007F70CFB05F604FB0CFC16EB074642EB18
:10462000174216EB0C4642EB1C421BEB060658EBFE
:104630000202414146EA9E0601D5BDE80189B6194C
:10464000524141EB0101A3F10103BDE801894FEAA9
:1046500014454FEA114724EA054621EA074C05FBB9
:1046600007F406FB07F70CFB06F105FB0CFC11EB4E
:10467000074144EB17444FEA124711EB0C4144EB5E
:104680001C4422EA074C05FB07F206FB07F70CFB6C
:1046900006F605FB0CFC16EB074642EB174216EB41
:1046A0000C4642EB1C456A1854F1000148BF7047A4
:1046B000B619524141EB0101A3F10103704795F096
:1046C000000F37D04FEA11424FEA144721EA024661
:1046D00024EA074C02FB07F106FB07F70CFB06F484
:1046E00002FB0CFC14EB074441EB17414FEA154762
:1046F00014EB0C4441EB1C4125EA074C02FB07F587
:1047000006FB07F70CFB06F602FB0CFC16EB074654
:1047100045EB174516EB0C4645EB1C42121951F1BF
:10472000000148BF7047B619524141EB0101A3F1A6
:10473000010370474FEA14454FEA114724EA054642
:1047400021EA074C05FB07F106FB07F70CFB06F215
:104750004FF0000605FB0CFC12EB074241EB174142
:1047600012EB0C4251EB1C4148BF7047921841EBD1
:104770000101A3F10103704703B4019841000098BF
:1047800050EAC12018BF04204A0D18BF40F00100B4
:1047900040F2FF72B2EB515F08BF40F00200012807
:1047A00008BF052002B0704730380A2801D2012026
:1047B000704700207047000010B500290AD0087823
:1047C000002807D005487844FFF7D4FB002801D023
:1047D000002010BD0248784410BD0000FA06000019
:1047E000F2060000491058BFC1F140415B1058BFAC
:1047F000C3F140438B42EFF3008070472DE9C04185
:1048000030B4DFF8A0C23CEA111418BF3CEA13141C
:1048100000F0EC8081EA03051CEA111444EAD57427
:1048200018BF1CEA131500F0C780A4EB05044FF075
:10483000004545EAC12145EAC32341EA505143EA14
:10484000525304F17F74994204F500344FEAC020BA
:104850004FEAC22208BF904200F09C804FEA1365E5
:104860000FF24016765D4FEA134506FB05F7C7F1D8
:10487000807706FB07F74FEAD737A7FB0368764236
:10488000C8F58038A7FB06CE38BFA8F1010807FBA2
:1048900008E64FF0000EA6FB028CE6FB03CEDCF12F
:1048A000000CCEF1004E38BFAEF1010EA6FB0C5845
:1048B0004FF000074FF00005E6FB0E87A1FB08C68E
:1048C000A0FB07CE16EB0E0645F10005E1FB0765E0
:1048D00015F1E04E7EBFA4F580345FEA46066D41D7
:1048E00016F1800745F100054FEA17274FEA0666E3
:1048F00047EA0567A6F1DE46B6F1805F4FEA152567
:104900001FD9384624F0010C05EBC471BCF1FE6FD1
:1049100001EB0C1102D8F0BCBDE8008124425CBF61
:1049200001F5801E9EEAC47F02D4F0BCBDE8008180
:10493000244238D4F0BCA1F1C041BDE8004100F0F0
:10494000BBB94FEAD22242EA43524FEAD323A7FB34
:1049500002864FEAD02040EA415007FB03661EEA78
:104960000E0F4FEAD12105FB026658BFA6EB005699
:10497000B6EB00564FEA520E4EEAC37E18EB0E0E0F
:1049800056EB530EBDD518EB02085E417F1C55F166
:104990000005B6E74FF480154FF000074FF0000612
:1049A0004FF00008ADE7F0BC4FF0000001F1C0414E
:1049B00001F00041BDE8008111EA0C1F0CEA13155B
:1049C00000D00CE013EA0C1F00F025804FF000002F
:1049D000F0BC81EA030101F00041BDE80081F0BCB8
:1049E000BDE8004181EA030100F066B9F0BCBDE812
:1049F000004170B500F012F9097EFC3E00F007B8E6
:104A000081EA03014FF0000001F00041704781EAA4
:104A1000030100F051B9F0BCBDE800414FF00000C7
:104A200021497047FFFDFBF9F7F5F4F2F0EEEDEBED
:104A3000E9E8E6E4E3E1E0DEDDDBDAD8D7D5D4D39C
:104A4000D1D0CFCDCCCBCAC8C7C6C5C4C2C1C0BFE8
:104A5000BEBDBCBBBAB9B8B7B6B5B4B3B2B1B0AFEE
:104A6000AEADACABAAA9A8A8A7A6A5A4A3A3A2A1D2
:104A7000A09F9F9E9D9C9C9B9A999998979796958D
:104A800095949393929191908F8F8E8E8D8C8C8B29
:104A90008B8A8989888887878685858484838382B1
:104AA000828181800000FF070000F87F51EA030C3B
:104AB00017D41CF5801F58BFBCF5801F00F106807D
:104AC000994218BF704708BF9042704707D711F549
:104AD000801F58BF13F5801F19D49942704789422F
:104AE00070471CF5801F08D5BCF5801FF7D58B4299
:104AF00018BF704708BF824270474FF4001C1CEB80
:104B0000410F38BF1CEB430F01D28B42704770B589
:104B100000F084F8922449004FF000514FF0805388
:104B2000FFF760BE4FEA1153A3F58063D3F11E0374
:104B3000A8BFD3F1200C08DB4FF0004242EAC122AB
:104B400052EA505232FA03F0704709420BD4102B4C
:104B5000C4BF0020704703F5787CBCF1FF3F05D04F
:104B60004FF0FF3070474FF00000704770B500F015
:104B700055F800BF4992248000207047F0E7B0FA52
:104B800080F310FA03F10AD0C3F11D0303F580632B
:104B90004FEA41504FEA035202EBD12170474FF0E8
:104BA0000000704751EA030C17D41CF5801F58BF52
:104BB000BCF5801F00F10680994218BF704708BFFE
:104BC0009042704707D711F5801F58BF13F5801F1B
:104BD00019D499427047894270471CF5801F08D547
:104BE000BCF5801FF7D58B4218BF704708BF8242C3
:104BF00070474FF4001C1CEB410F38BF1CEB430FF8
:104C000001D28B42704770B500F008F89224490039
:104C10004FF000514FF08053FFF7E4BD0EF1020E4C
:104C20002EF0030E5EF8046B364205D4012A43EBE6
:104C3000030515F5001F12D8012841EB010C1CF5E6
:104C4000001F0CD80ED14FEAD17C15F5001F0CEBDC
:104C50004C0C0CF1020C08BF4CEBD37C04E04FF081
:104C6000080C01E04FEAD37C0CEB4C0526FA05F664
:104C700006F00706B6F1040C06D20EEB860CBDE872
:104C800070404CF0010C6047DFE80CF0090B0202A9
:104C90004FF000414FF00000A1F5002170BD194612
:104CA0001046012851EB010418BFD4F5001484BF4D
:104CB000002001F0004170BD0808A0F500114FEA86
:104CC0003101704743004FEAD30C4FEA3C0C43409C
:104CD0001FBF40070CF1605113F0FE4F70471CF0EE
:104CE000006F03D100200CF0004170470CF000432E
:104CF00043EA507010B540EACC0000F00EF800BF57
:104D0000000000924FEA0001FFF7D6BF4FF00041CC
:104D10004FF00000A1F5002170470EF1020E2EF0B9
:104D2000030E5EF8044B244204D44FEA4102B2F170
:104D30007F4F11D84FEA4003B3F17F4F0CD80ED10B
:104D40004FEAD07CB2F17F4F0CEB4C0C0CF1020C13
:104D500008BF4CEBD17C04E04FF0080C01E04FEAB7
:104D6000D17C0CEB4C0324FA03F404F00704B4F1F7
:104D7000040C06D20EEB840CBDE810404CF0010C84
:104D80006047DFE80CF0070802024FF00040A0F592
:104D9000800010BD0846420018BFD2F1807288BF63
:104DA00000F0004010BD4FF04070E1EE100A704777
:104DB000FEF762BE02400000000000A000000000FC
:104DC00005400000000000C8000000000C4000008A
:104DD0000000409C00000000194000000020BCBE04
:104DE0000000000034400000BFC91B8E000000041A
:104DF000B5400000504BCFD06607E2CF0100000065
:104E00006C4100003E8251AADFEEA7340100000091
:104E1000D9420000DCB5A0E23A301F97FFFFFFFF48
:104E2000B4450000FD25A0C8E9A3C14FFFFFFFFF67
:104E3000FF3F00000000008000000000FF3F000076
:104E400000000080000000004578706563746564B0
:104E50003A20202025322E336620430A41637475A0
:104E6000616C3A202020202025322E336620430A10
:104E70004572726F723A20202020202025322E3376
:104E80006620430A44757479206379636C653A201F
:104E900025332E32662025250A2D2D2D2D0A0000C2
:104EA000DC4E00080000002048000000D00100088F
:104EB000244F00084800002090070000EC01000883
:104EC0001C00000043000000F8FFFFFF0C00000082
:104ED0000E0000000F0000002E0000000000000087
:104EE0000102030401020304060708090000000090
:104EF00000000000000000000000000000000000B2
:104F000000000000000000000000000000000000A1
:104F100000BD0105000000000000000001020304C4
:044F2000060708096F
:040000050800024DA0
:00000001FF
